:020000041000EA
:10000000002008205D0100101B0100101D010010E0
:100010001101001011010010110100101101001058
:100020001901001019010010190100101F01001022
:1000300011010010190100104932031023010010B2
:100040001101001011010010110100101101001028
:100050001101001011010010110100101101001018
:100060001101001011010010110100101101001008
:1000700011010010110100101101001011010010F8
:1000800011010010110100101101001011010010E8
:1000900011010010110100101101001011010010D8
:1000A00011010010110100101101001011010010C8
:1000B00011010010110100101101001011010010B8
:1000C00011010010110100101101001011010010A8
:1000D0001101001011010010110100101101001098
:1000E0001101001011010010110100101101001088
:1000F0001101001011010010110100101101001078
:100100001101001011010010110100101101001067
:10011000EFF30580103800BE00BE00BE00BE00BE7A
:1001200000BE00BEF2EB887154F40710ECF4071027
:10013000B801001090A31AE7D3DEFFFF420121109F
:10014000FF010000A40B0800793512AB4FF000004E
:100150002749086006C881F3088810474FF05040CF
:10016000006810B14FF00000F2E722496B46ADF590
:10017000807D6A4600F01CF868460130804740B038
:100180000DA40ECC002902D000F012F8F9E71A49AC
:100190001A4A002000E001C19142FCD11849884769
:1001A000184988471849884700BEFDE701C901C2C0
:1001B0009A42FBD3704700BF8409061000000E402E
:1001C00000010E40ECF4071020010020101900205F
:1001D000DC0C08100000082000000820DC0C0810CF
:1001E0000000082000000820000000007047000008
:1001F00008ED00E0840906101019002034AA002040
:1002000089E70510592B031081E70510F8B500BFE9
:100210000348044B834202D0034B03B11847704795
:10022000101900201019002000000000064B07499B
:10023000C91A891048BF0131491003D0044B0BB1D2
:1002400001481847704700BF1019002010190020FE
:100250000000000010B5064C237843B9FFF7D8FF23
:10026000044B13B10448AFF300800123237010BD89
:10027000901A0020000000008409061008B5044B05
:100280001BB104490448AFF30080BDE80840CDE746
:1002900000000000941A00208409061008B50346E7
:1002A00021B1D10702D40F481AF0FCFAC2F34F0073
:1002B000B0EB524F4FEA524106D1994210D00A4654
:1002C00009490A4819F023FB994204D9CA1A074878
:1002D000074919F01CFB984202D202460549F0E793
:1002E00008BD00BF880A0610920A06102C97061057
:1002F000A00A0610A80A06102DE9F74F0024DDE930
:100300000CA581468B469046264627460193019BC5
:100310009C4204D14F453AD222481AF0C3FA4C45C8
:100320000FD2BAF802209205F6D45BF82400013708
:100330009AF80220012A23D10EF032FD05F824009C
:1003400017E0BAF800100022C900404641F002014F
:100350000AF090F988B9BAF80220D30505D5BAF8A1
:1003600000201149114819F0D2FADAF8042045F8B2
:10037000242001340AF1080AC9E740680136D7E7AA
:10038000022A01D10EF0CEFB45F82400F1E7D8F89F
:100390000030B6EBD30F01D20548BEE703B0BDE88D
:1003A000F08F00BFC60A0610C10A06102C9706106F
:1003B000D00A061070B51E460446154686B002EBFC
:1003C000800203A80AF022F90B9B294601930A9B9D
:1003D0002046009303AA3346FFF78EFF06B070BD98
:1003E00008B501481AF080FADA0A061010B504467A
:1003F000016188000AF08DF8606110BD10B50446F7
:1004000011B1C0680AF0ADF86069BDE810400AF0AB
:10041000A8B8012938B504460D460BDC02694FF037
:10042000FF314069920060F0CAF8002325706370C4
:10043000636038BD40680AF06CF86368E060A360F0
:10044000F3E74378024610B553B944680078214475
:10045000022814BF1846D368516008BF181910BD90
:100460000020FCE7002343700378012B9EBF426805
:10047000436943F82120704742684B1E13444942A8
:100480000B404360704738B50D461446FFF7D9FF5F
:1004900010B10544A84200D138BD00F8014B240A30
:1004A000F8E710B50C460221FFF7CBFF10B104703E
:1004B000240A447010BD38B50D4604211446FFF7D8
:1004C000C0FF28B1057084702D0A240A4570C470DD
:1004D00038BD012970B5054606DC002909DA023964
:1004E00021F00104FE2606E08B1E012BF7D8002424
:1004F000F8E70024F226284646F43541FFF7D1FFFD
:1005000044B17F2C09D844F43041284641F08001A1
:10051000FFF7C7FFC5E9066470BDA300A201DBB207
:1005200002F4E0421A434FF2AD21284642F45062F1
:10053000FFF7C1FFEEE7C16910B5044629B17F2975
:100540000BD841F43041FFF7ACFFA1692046BDE86C
:10055000104041F43D41FFF7A4BF8B008A01DBB29C
:1005600002F4E0421A434FF20D2142F45062FFF7C9
:10057000A2FFEAE7114341EAC301FFF792BF072A4E
:1005800085BF083AD200D20042F04002072985BF59
:1005900008391143114341F0800141F48C41FFF7C8
:1005A00080BF30B4DCB244EA02225C101D0104F4C6
:1005B0008064C3F3033305F4E04523432A4319431E
:1005C00030BCFFF778BF38B50546436953F8214082
:1005D0004368E41A043CC4F34A0141F46041FFF764
:1005E00060FF2B78022B0AD1B4F5006F07D36FF3AD
:1005F0000A0414F5006F14BF0020012038BD01204B
:10060000FCE7F8B54469074654F8224042681E46A4
:10061000A41A043C6510BBB9EDB245EA012141F4CE
:100620005041FFF73EFF3B78022B0BD1FF2C09D93D
:1006300024F0FF0414F5807F14BF00240124264613
:100640003046F8BD0124FAE76211C5F30A0502F449
:1006500000522A43A512231205F48065C4F3053421
:1006600003F4006325431A4345EA811142F4004232
:1006700041F47041FFF71FFFE2E738B505464369D3
:1006800053F821404368E41A043CC4F34F02C4F316
:100690000A3142F4784241F47041FFF70CFF2B78A5
:1006A000022B0AD1B4F5800F07D36FF3150414F5AC
:1006B000800F14BF0020012038BD0120FCE7F8B5F1
:1006C00004460D461646476813460A464FF2402137
:1006D000FFF767FF20462A464FF2C021330CFFF791
:1006E00060FF3846F8BD072910B4044608D8FF2A31
:1006F00006D810BC42EA012141F40051FFF7D1BEF7
:10070000B2F5803F07D21346204610BC0A464FF28E
:100710004021FFF746BF204610BCFFF7D0BF2DE9B0
:10072000F84341EA0207072F06460C461546DDF856
:1007300020904AD803FA09F7FF2F0CD8914201D034
:10074000FFF71DFF47EA042141F440513046BDE860
:10075000F843FFF7A6BEFF2B4FEAC10814D8914219
:1007600018D043EA012343F40051FFF79AFE44EA0C
:100770008911304641EA0801FFF793FE48EA8511E6
:10078000214341F4C051E1E7914203D03A46FFF7DB
:10079000AAFFF3E7012584F0070905FA09F53046B9
:1007A00045F43441FFF77DFE3A4649463046FFF7AF
:1007B0009AFF44EA891141EA080141F4C0513046E8
:1007C000FFF76FFE45F43C41C0E7BDE8F883000049
:1007D00008B50378012B04D9FF2902D905481AF07E
:1007E00083F8C9B241EA022141F41041BDE8084052
:1007F000FFF757BEFE0A061008B50378012B04D98F
:10080000FF2A02D905481AF06FF8D2B242EA012154
:1008100041F41841BDE80840FFF743BEFE0A061048
:10082000D2B242EA012141F42841FFF73ABE38B57D
:100830000C460546436953F8223042689B1A43F040
:1008400001030A460A3B4FF24021FFF7AAFE234666
:10085000284622464FF43241FFF78CFE210101F079
:10086000800104F00704214341F488412846BDE893
:10087000384041F07801FFF714BE000073B51F2B1C
:1008800006460C46069D11D8114307290ED81A4971
:1008900044EAC202495D41F0010142EAC12141EA54
:1008A000831102B0BDE87040FFF7FBBD03FA05F10C
:1008B000B1F5805F0DD2304642EA451541EA043277
:1008C00045F4784141F0900102B0BDE87040FFF777
:1008D000F2BD214630461F3B0095FFF720FF064B37
:1008E000E1005B5D304643F0010341EAC32121434F
:1008F00041F4F861D5E700BF3B7D06102DE9F743D1
:100900001F2B07460C46154699460A9E10D841EA09
:100910000203072B0CD8204B995D44EAC12141EA20
:10092000C20141EA891103B0BDE8F043FFF7B9BD48
:1009300009FA06F2B2F5805F0DD2384645EA461153
:1009400041F4784142EA043241F0800103B0BDE84D
:10095000F043FFF7B0BD4FF0010808FA05F838463C
:1009600048F43441FFF79DFD2A4629463846A9F14F
:100970001F030096FFF7D3FE074B44EAC5019B5DBA
:10098000384641EAC32141F4F861FFF78AFD384651
:1009900048F43C41C7E700BF3B7D0610436910B4F3
:1009A00053F8211043680446CB1A043B0131C3F3CA
:1009B0004A020DD0D91C0BDA23F4FF6121F00701A4
:1009C00011F5006F04D110BC42F46041FFF769BD1E
:1009D000C3F30A33204610BC42F4384243F470415A
:1009E000FFF769BD436930B453F8222043680546D8
:1009F000D31A043B01324FEA63040ED0DA1C0CDA3E
:100A000023F0FF0212F5807F07D1E4B244EA01210E
:100A100041F4504130BCFFF744BD5A11C4F30A04FD
:100A2000181202F40052224300F4006002439812AC
:100A300000F48060C3F30533034343EA8111284681
:100A400030BC42F4004241F47041FFF734BD37B589
:100A50001446022205460B46009221460722FFF764
:100A60000DFF2846E10041F48F4103B0BDE830405E
:100A7000FFF717BD37B50DF105040B46214602F00F
:100A80007F05D20904F8015DF9D1091B984740B1EF
:100A90000146631E01AD13F8012FAB4203D11B1BAE
:100AA000C25403B030BD62F07F0201F8012BF2E7BF
:100AB000002310B5026812F8011B01F07F0409063B
:100AC00044EAC313F7D40260184610BD07B501907D
:100AD00001A8FFF7EDFF03B000BD10F9013B002BAB
:100AE000FBDB70472DE9F04F91B0CDE905238389F9
:100AF0000446049343688A465A1C42601A780023CD
:100B000099461E46D0F8008002F0030501931106B5
:100B10001AD400230620CDE908336268099F511CCE
:100B20006160127802F0010199400F43099700FBC0
:100B300003F7C2F34501B940089F120647EA0107CF
:100B400008971AD50133E8E762680198511C616083
:100B50001278C2F3801199400E4302F004019940CB
:100B60000D43C2F3C0019940084302F001019940CE
:100B7000019049EA01090133C9E70021A368E18135
:100B80001F1D0293049B38469B001A4603935FF097
:100B900016FD049B019A5B1B07939B1A013B55456D
:100BA00007EB830B06F004026CD22AB953462A469F
:100BB0009249934818F0ABFE0A93069BAAEB0500F6
:100BC00003EB850115F06AFC0A9BABF1040B47F8B7
:100BD00023002B46DDE90210069A014402EB830351
:100BE0009A4275D1059A06F008030B93134306F059
:100BF000020600F0EA80069B03EB8A0A002E6CD006
:100C000010460FF015FD0690CBF800000023D346E8
:100C10000A93019BEB180C930A9B059A93425ED1B1
:100C20004E46079B08F10C0007EB83031A1F002EAA
:100C300040F09880039A03EB89033A449A4200F209
:100C400099806068FFF749FF002295420F9040F0BD
:100C50009A80029B079A09F1040903EB8205019B24
:100C6000B34240F09480089B6568DDF824801D4401
:100C7000049BA8445E1E454540F0B580656011B0F8
:100C8000BDE8F08F22B15F4AABF1040B47F8232097
:100C9000059A06F00803134311D1A5EB090252454A
:100CA00014D8029A09EB0A03A2EB8A01039A5B1B90
:100CB00008EB8303114408EB8900834201D15346BA
:100CC00088E71A69043341F80429F6E753466FE7C9
:100CD00052F8040B41F8040982E7069696E760682B
:100CE000FFF7FBFE0021DBF800A00F900C9B8B426E
:100CF00004D856BB44494FEADA0217E00FA80D9119
:100D0000FFF7D6FED8F804200D99926832F810202B
:100D1000D20042F00202924515D1049B5A1E521A8B
:100D200057F8221029B139494FEADA02344818F04D
:100D3000EEFDDBF8041047F822100A9B0BF1080BBC
:100D400001330A9368E70131D0E7069B012251463F
:100D5000181D09F08FFC4268002AE4D1DBF804205A
:100D60004260EAE752F8041F11B950F826101160EA
:100D7000013E5CE753F8041B00297FF45FAFD21AF1
:100D800023499210D2E7FFF7A8FE01325DE70FA8D2
:100D9000FFF78EFE55F8042992B9D8F804309B6805
:100DA00033F810A00B9B6BB158F829004FEACA0129
:100DB00041F00201043009F05DFC18B143686B603A
:100DC00001364CE752461349B0E7019B13B1124874
:100DD00019F068FD002E3FF446AF01980FF028FC93
:100DE000CBF800003FE715F8019BA6EB090957F87F
:100DF00029000EF011FE47F829003CE7920A061080
:100E00002C97061044A806101F0B0610140B061092
:100E1000250B06102F0B0610370B061010B40468B4
:100E2000E468446000F11004846010BCFFF75ABE0F
:100E300030B40468E568A4682D680DB154F8254005
:100E4000446000F11004846030BCFFF74BBE00002A
:100E5000402810B50C4633D00DD800F0FD003C28DA
:100E600009D1622918D848294FF0010106D8422C2F
:100E700031D0482C53D02E4819F066FB40F2C940BF
:100E8000A4F14903DBB201FA03F303424CD1622C13
:100E900021D0512CEFD111E0A1F16404E4B20D2C6A
:100EA000E9D8012101FA04F414F4927F3CD114F042
:100EB000120F34D142F201031C42DCD008202FE093
:100EC000622919D8482908D8422903D0482924D0B2
:100ED0000129D0D10121084622E0012340F2C94076
:100EE0004939C9B203FA01F101421FD1622CF1D094
:100EF000512CC0D10821EEE7A1F16404E4B20D2C1D
:100F0000B9D80123A34013F4927F0CD142F201011E
:100F10000B42EFD113F0120FADD00221DBE702201C
:100F200002B1116010BD04210420F9E70421D2E7C9
:100F3000480B0610512808B52CD8412803D80128A1
:100F400057D0002051E042380F28FAD801A353F8B7
:100F500020F000BFF30F0010430F0010430F0010EC
:100F6000430F0010430F0010430F0010FD0F00103F
:100F700003100010430F0010430F00100310001067
:100F8000430F0010430F0010491000104F100010C5
:100F90001F1000106238C3B20F2BD2D80F28D0D840
:100FA00001A353F820F000BFE90F0010430F001019
:100FB0003B100010430F00102F100010430F0010C3
:100FC000F70F00104F100010430F0010430F0010D8
:100FD0004F100010430F0010430F0010430F00107C
:100FE000430F00100F1000108856400040F0010021
:100FF0002CE0885CF9E731F91200F6E731F81200CD
:10100000F3E751F82200BDE8084011F03AB801EBCF
:10101000C201D1E90001BDE8084011F007B801EBB9
:10102000C201D1E90001BDE8084011F01AB851F839
:101030002200BDE808400FF0ADBF01EBC201D1E9CD
:10104000000158F001FEF4E751F8220008BD51F804
:101050002200BDE8084010F0F9BF00BF70B504469B
:1010600052B94FF0FF35421E134491B193F900205D
:10107000D0170146002209E00125F6E71E78090293
:1010800041EA10612B4446EA00200132A242F5D128
:1010900070BD0846EEE72DE9F3410646174601AA62
:1010A0000D4698461C68FFF7D3FE402E07D13C261C
:1010B000019AE41B531E1C44524214403C443E3EE1
:1010C000724204EB000372415A2D94BF00210121AA
:1010D000C8F800302346FFF7C1FF4F2D06460F46E4
:1010E00059D0532D04D102B0BDE8F04113F08ABBB2
:1010F000652D24D1C6F384221F2A80B2C6F30903CA
:1011000019D062B170325B03000443EAC25300F0AD
:101110000040184302B0BDE8F0410FF03BBF63B19F
:1011200070215B005C050A4601F1FF31F9D5A3F59A
:1011300080639BB2E7E7FF22E5E71A46E3E7662D07
:10114000E8D0642D02D158F07FFDE3E75A2D12D983
:1011500010F1804441F10005B4F1004F75F1000534
:1011600004D202B0BDE8F04110F070BF02B0BDE89B
:10117000F04110F05BBFB0F1804F77F1000104D275
:1011800002B0BDE8F04110F07CBF394602B0BDE8C6
:10119000F04110F066BF02B0BDE8F08113B504461F
:1011A0000193104601AB29B9224619465FF036FB80
:1011B00002B010BD23441444A242F9D013F8011D1B
:1011C00002F8011BF8E700002DE9FF470C9F80465D
:1011D000144601AA89469A463D68FFF739FEB8F1E0
:1011E000400F064609D14FF03C08019BA5EB0A05CC
:1011F0005A1E15445B421D405544A8F13E02AB19EE
:101200003B6057425741B9F1650F1DD014D8B9F171
:101210004F0F42D0B9F1640F52D0A3076DD12268AD
:101220003F4B9A4269D12B4632463946204610F050
:1012300035FE04B0BDE8F087B9F1660FEDD1204668
:101240000DF0C0FC044628E020460DF0BBFCC0F3C6
:10125000493110F4805F01F10103C0F3C75218BF98
:101260001946FF2A28D07AB1B2F170031FD50B338B
:1012700024DB41F4806189B2C2F17002114101F0B6
:101280000103C1F34E0119440023264A02EA104229
:1012900041EA020444EA8324A4B2042E30462346E1
:1012A0002A46394628BF0420FFF778FFC1E73F2BC5
:1012B000EBDD1F230021E8E71F23E6E70021E3E73A
:1012C00020460DF07FFC5CF03BFACDE9020104AB57
:1012D00003EB87032A4653F8083C39460420FFF7FE
:1012E0005DFFB8F13E0818BF4FF0010804AB03EBF7
:1012F000880858F8084C0435CFE720460DF012FC5A
:10130000042E0446C9D90028B4BFFF210021284675
:1013100008225FF054F9B8F13E0F08BF0435BCE76E
:10132000109D06100080FFFF712838B50D46144649
:1013300007D8612806D8012850D04238C2B20F2AF7
:1013400026D938BD62380F28FBD801A252F820F008
:10135000DD1300104313001001140010431300109C
:10136000F513001043130010E113001011140010C6
:101370004313001043130010111400104313001006
:10138000431300104313001043130010E713001021
:101390000F28D6D801A252F820F000BFDD130010AC
:1013A00043130010431300104313001043130010A5
:1013B00043130010E1130010111400104313001028
:1013C00043130010111400104313001043130010B6
:1013D0004313001011140010E71300102B55B0E751
:1013E00025F81430ADE705EBC402D91745F83430C1
:1013F0005160A6E718465CF0B1F945F82400A0E773
:10140000184601EBC40458F02DFCC4E9000198E72C
:1014100045F8243095E700BF64282DE9F0410646E1
:101420000D4617461C461FD0662816D04F2825D0DB
:1014300013F0030825D11A68174B9A4221D142466E
:1014400001464020FFF704FD414600FB07530246DA
:101450002046BDE8F04110F021BD18460DF0B2FB6A
:1014600045F82700BDE8F081184601EBC2050DF0F4
:10147000A9FB5CF065F9C5E90001F3E741F822300A
:10148000F0E720460DF04EFB3A460346294630462B
:10149000BDE8F041FFF748BF109D061037B50C4678
:1014A00001A9206813F0F4FC0546606813F066FC9F
:1014B00029460023019A08F0F8FF0546A06813F0BA
:1014C0005DFC512808D040F2B133984212D0502828
:1014D00012D00A4819F038F80121002328461A468C
:1014E00018F026FB0649044608200DF03AFA44603D
:1014F00003B030BD0021F0E70221EEE7530B0610E8
:10150000F09306104FF050438446F0B515461A6824
:10151000354BBCF1010F53F822300F46D3E90310CD
:1015200085B01CD97C68062C16D0A20711D1226880
:101530002E4EB2420DD12646BCF1020F11D0BA6830
:10154000062A0ED0960704D1284ED2F800C0B44522
:101550002CD0002019F0A6F90E460446ECE70E4602
:1015600004463F68BA0723D1214AD7F800C0944502
:101570001ED1CDE902016846C3E903641D490DF09F
:1015800085F97868830708D103681B4A934202D023
:101590001A4A934201D143685C6018F0C3FA0446CA
:1015A00001200DF081F9204605B0F0BD1646D8E7C0
:1015B0006DB9384613F0E2FB08F083FF012533468E
:1015C0002246294605B0BDE8F04018F0B1BA694698
:1015D000052238460DF0CCFCDDE900120023DF20A7
:1015E00008F063FFEBE700BF5020002020960610B4
:1015F000F093061015960110649B0610449B06108C
:101600000222FFF77FBF0122FFF77CBF0022FFF716
:1016100079BF70B506460D4600246B68A34200D81A
:1016200070BDAB6853F8341021B1042902D03046A4
:1016300010F057FF0134F0E72DE9F74338B94F496F
:101640004F480AF04DFE062003B0BDE8F08341F696
:10165000E2030C689C424CD10021084611F0D0F9FD
:1016600048490190FFF7D5FF47490198FFF7D1FF9F
:10167000464C019E257875B90120454A01A911F013
:1016800017F8019BD3E9028908F10306B608AE42B8
:101690000FD14049D4E720465FF0CDF8C11E451C6C
:1016A000204613F021F80146304610F01AFF2C4472
:1016B000E0E72F4659F8270013F078FB374401463E
:1016C0002F480AF00DFEB8450DD9C0F11204002CC8
:1016D00007DD013C30492A480AF002FE002CF8D10F
:1016E000E8E71234F3E72D4925480AF0F9FD013502
:1016F000CDE720460DF042F90546294920480AF079
:10170000EFFD002120460DF06BF9EA8825491C48C1
:101710000BF098F9244B9D4224D1646800250434D1
:1017200063689D428FD2A36853F8356003EBC5020E
:10173000B6B1042E14D01D49114857680AF0D0FDE7
:10174000002130460DF04CF919490D480AF0C8FD4A
:10175000002138460DF044F9104909480AF0C0FD4F
:101760000135DDE7134B9D4218BF2C46E37C002B6F
:101770003FF469AF04EB83042469CFE798FF0610B8
:10178000508E0610289F0610849E0610E81C071035
:1017900088960610620B0610166E0610C16B0610B6
:1017A000860B06108E0B0610CC9F0610B743061052
:1017B0009E0B061014A9061002228168024842EA14
:1017C000C10108F057BF00BF942E00202DE9F04F53
:1017D00083B0044600AF18460E46BA219846154617
:1017E0000EF00EFF0022814640F6227108F104003F
:1017F00008F040FF391D8046484613F049FB7A68DF
:1018000001460244B8F1000F00D0013C4CB99142AE
:101810000AD11C491C4818F071F812F8013D2E2B12
:10182000F3D09142F9D3F2E7D5F800A0541A04EBB3
:101830000A0808F1080323F00703ADEB030D6B461C
:1018400022466846E9464FEAD30B5EF0E7FFBAF15D
:10185000000F0AD02E23601C5246316804F83B303A
:1018600068445EF0DBFF08F101084146484617F086
:10187000D7FA17F0A5FB0C373060C5F80080BD46DD
:10188000BDE8F08FA30B0610B898061010B51BF03A
:1018900038F80949082204465EF0B8FE014630B91E
:1018A000024604F10800BDE8104007F05DBC204688
:1018B000BDE8104026F026BBB70B061010B5044655
:1018C000FFF7E4FF02280ED06168012202392046AA
:1018D0001BF075F86D2303702046FFF7D7FF831EBA
:1018E00058425841400010BD10B50446FFF7CEFFE6
:1018F000012808D0204604491BF054F82046BDE8D2
:101900001040FFF7DBBF10BD1954061030B5D200F0
:1019100085B00D4642F0020240F2E111044618F093
:10192000A1FA4FF0504319680C4B626853F821300C
:10193000684619690291D9680391C3E903220849ED
:101940000CF0A4FF00222146284603F045FF18F0C2
:10195000E9F801200CF0A8FF05B030BD50200020B0
:1019600015960110F0B5044685B008460E461AF0EB
:10197000C8FF0822214905465EF048FEC0B905F1BE
:1019800008076A46384601A907F0EEFB019B022BC7
:101990000ED1009D95E80300C4E90201384617F016
:1019A000F1FA02462046A968FFF7B0FF05B0F0BD86
:1019B000284617F0E7FA736807461D4415F8033CFC
:1019C0006D2B07D102A9029417F0A6F9DDE90201F7
:1019D0003A46E9E708F075FD0546026840F2E11174
:1019E000D200204642F0020218F03CFA636801215E
:1019F0001A46284618F09CF8D8E700BFB70B061027
:101A00002DE9F04F032806460D46B1B009D9042848
:101A1000D1F80CA023D00C69641005D5002018F073
:101A200093FD00244FF0060A286803A913F030FA4A
:101A30000490E4B14FF050431A687A4B012E53F8EA
:101A400022301B690ED96A68062A0BD0930703D18E
:101A50001168754B994204D0002018F023FF002430
:101A6000E2E71346204603AA04A9FFF7AFFE039B53
:101A7000002BD3D0002301251C461F46DFF8ACB154
:101A8000039AAA4207D2BAF1060F0CBF3846204685
:101A900031B0BDE8F08F049E02D0725D2E2A23D1B2
:101AA00029463046019317F0BBF9019B8046E91A9D
:101AB000F01817F0B5F906AA064605A9DBF8C80024
:101AC0000DF0D2F8059B8BB14FEAC80100225848AF
:101AD00041F0020108F0CEFD40B1D0F80490002F93
:101AE00008BF4F464C466B1C0135C9E7802110AA40
:101AF0000CA81AF0ADFE002C3CD12146304611F066
:101B000087F881460028EAD1DBF8C80008AA07A9AF
:101B10000DF0AAF8079B99450BD30121304611F02F
:101B200077F881460028DAD142464249424817F008
:101B3000EEFE00230D93089B09A953F8290013F02A
:101B4000A7F9099A014632B10CA81AF059FE2F21C3
:101B50000CA81AF0ECFE304617F032FA01460CA839
:101B60001AF020FF0CA8FFF7BFFE034610BB09F1D7
:101B70000109CFE720464FF4F27109AA17F05AFE87
:101B800009980028D0D013F011F901460CA81AF0DA
:101B900009FF2F210CA81AF0CAFE304617F010FAE0
:101BA00001460CA81AF0FEFE0CA8FFF79DFE0346A6
:101BB0000028B9D04046019311F008F81F4981462A
:101BC00009A8CDF82C800CF061FE019B012B24D1DB
:101BD000DDE90D1012F088FD4FF4F271024648461F
:101BE00018F040F916490CA8DDF834801AF0DAFE36
:101BF0000CA8FFF763FE022803D148460CA9FFF7A3
:101C0000B1FECDF8348024B14A463146204618F062
:101C100029F900200CF048FE61E748460CA9FFF7BF
:101C2000A1FEF0E75020002020960610402E002054
:101C3000942E0020C00B0610B8980610B91700109B
:101C400055520610036A1B8B012B1EBFC3685B181D
:101C5000C360704710B50446836A406A9B6F98471B
:101C6000238B226A0133918C9BB29942238338BF24
:101C7000938410BD10B50446038B013B0383836A34
:101C8000406AD3F8843098472046BDE810400121CF
:101C9000FFF7D8BF2DE9F74F04460D4691469A4607
:101CA0001BB1CB8A43F00803CB82236AA5F81E90B0
:101CB000DA8A42F03002DA821B78002B45D1A36A1F
:101CC0004A46D3F8B46029465346B446606A03B026
:101CD000BDE8F04F6047DB6A03EBC60B13F8363004
:101CE000053BDBB2012B1BD8002716E0EB6A03EBA8
:101CF000C70213F83730062B0ED1DBF804105368F7
:101D0000994209D1A36ABBF802201B69606A9C460C
:101D10000023E04708F1010801372B8DBB42E5DCC9
:101D20000136236A1A8DB242D5DCB8F1000FC6D055
:101D3000A36ACDF800A0D3F8B86042464B462946C6
:101D4000606AB04703B0BDE8F08F0026B046E8E710
:101D500010B50446836A0021D3F88830406A98475A
:101D6000A36A606A0F211B6B9847A36A606A01210E
:101D7000D3F8CC3098472046BDE810400321FFF748
:101D800061BF38B50446836A00225B6C406A98479D
:101D9000A36A606AD3F8C05000231A461946A847C0
:101DA0002046BDE83840FFF7D3BF836A8968002228
:101DB0001B6D406A09091847836A8968DB6B406AB2
:101DC000184710B50446084611461A4618F0FEFE9C
:101DD000236A436000238360E3690BB9E06110BDAF
:101DE0001A469B68002BFBD19060F8E72DE9F04F75
:101DF00087B005460C4600AF51B90121116022465B
:101E0000AB6ADB6A686A98471C37BD46BDE8F08F4D
:101E100011F0030614D10B79682B14D1CB681B0980
:101E200013608C68002CE8D0012604F00F03022B0D
:101E300008D1210906B91160AB6A0022DB6AE1E72B
:101E40000026F2E716B9A3681B091360A04658F8EC
:101E5000043FC1464FEA132A08EB8A030AF1FF3B0D
:101E6000BB6059F8040F000917F0A0F8BB68834461
:101E70009945F6D10BF1070323F00703ADEB030DF2
:101E8000E9460023C7F80CD058F8040F07F11401F5
:101E900000093B6017F09FF87A69014648467A606E
:101EA0005EF0BCFC3B6801339A4506D07A689144E9
:101EB0004FF02E0209F8012BE6E75946F86816F0B4
:101EC000AFFFAB6A01460022DB6A686A9847002EC2
:101ED0009AD00834BB689C4296D054F8041FAB6A71
:101EE00000221B6D686A09099847F3E731B18268DF
:101EF00001F00303134304BF0B68836070472DE9AF
:101F0000F04107461E4661B111F0030511D1D1F829
:101F100004805FFA88F393420BD10C1DB5EB182FA8
:101F200001DBBDE8F081384654F8041FB0470135A5
:101F3000F4E738463346BDE8F0411847F8B50F4698
:101F400011461A46002304468578066983700361AA
:101F50000E4BFFF7D4FF6368BBB9618AED1A18BF57
:101F6000012551B1228A42B9A36A606AD3F8A03030
:101F70009847A36A606A1B6C984739462046238AB3
:101F8000628AFFF787FEA5702661F8BDE52700107D
:101F900070B543780546012B0C4606D1036A0A4604
:101FA0001B8B0221FFF70DFF20612846A2682169E3
:101FB0004C23BDE87040FFF7C1BF70B513464278AF
:101FC0000646012A0C4604D10A460721FFF7F9FE0E
:101FD000A061A569304646232946E268FFF7AEFFB7
:101FE000A88A70BD9D22024B8968FFF788BF00BF99
:101FF000E12C00106B22024B8968FFF780BF00BF05
:102000005D48001038B5436804460D4653B9114683
:1020100005480EF0F5FD294660602046BDE83840D1
:10202000FFF764BF38BD00BF74970610014AFFF781
:10203000E9BF00BFD00B06100B7970B5092B4FF626
:10204000FF730CBF858AC58A04469D4202D1064AA9
:10205000FFF7D8FF218B628BA36A606A8A1A5B6FD5
:102060002946BDE870401847DD0B061038B5054617
:102070000C4671B101F00F03022B0CD108090CF0D2
:10208000BFFB002806DA0649064822090EF04EFE7C
:102090006860002038BD044AFFF7B4FFF9E700BFCD
:1020A000F60B061008970610FB0B061070B51446C9
:1020B00005460E46127883B132B1032A04D0104A85
:1020C000BDE87040FFF79EBF032626706168286A4E
:1020D00018F0D9FD00B1067070BD62B901232370FC
:1020E0002146006A18F0D6FD2378012BF4D1314641
:1020F0002846044AE4E7062AEED0034AE0E700BF98
:10210000020C06100F0C06101C0C06102DE9F341F2
:1021100043780646012B0F4619D10B79102B08D0B6
:10212000026A12782AB9134A02B0BDE8F041FFF7FB
:1021300069BF103B5D424FF06D0101AA07F1080035
:102140005D4115F051FF00248046A04502D102B048
:10215000BDE8F081019B002253F82410306A090980
:1021600018F070FD2B46024639463046FFF79EFFB9
:102170000134EAE7230C061042780B46012A02D10B
:10218000006A03F0D3BA816A026A2031406A03F020
:10219000DCBA42780B46012A02D1006A18F052BD1F
:1021A000816A026A1031406A03F0CFBA70B5054601
:1021B0000C4600292ED0CA0706D5836A49105B6BEE
:1021C000686ABDE8704018478B0717D004F00F0409
:1021D000022C4FEA11110AD0062C0CD0052919D077
:1021E000BDE87040836AC9B21B6B406A1847BDE8FE
:1021F0007040FFF7CEBF836A9B6BE1E7836A096893
:10220000DB68406A98472279034B2146284653F8F9
:102210002230D6E770BD00BF887D06102DE9F74F4C
:1022200005460C4616461F46204615F09DFC40B15B
:102230006EB93946AB6A9B6E686A03B0BDE8F04F71
:102240001847204615F093FC20B1002EF1D103B0C1
:10225000BDE8F08F002C48D0A30746D163684FEA51
:10226000132BDBB21E2B18D1DEB1043404EB8B0B25
:102270005C45ECD03B463246284654F8041FFFF735
:10228000CDFFF5E7434628465AF8041F019209F1AD
:102290000109FFF7C3FF019A11E01F2B1FD1002E88
:1022A000E3D04FF00009D5F80C8004F1040A08F1DE
:1022B0000103EB600BF1FF33009386F00102009BFA
:1022C0004B45DFDC0BF101013B4654F8211032464F
:1022D0002846FFF7A3FFAB6A41469B6AACE7202B79
:1022E00003D1A46886F001069EE721462846FFF741
:1022F0005DFF3A463146AB6A686ADB6E03B0BDE803
:10230000F04F184738B5036A04461B780A46072B76
:1023100006D0022B04D0BDE83840144AFFF772BE45
:10232000956885B9A36A0F211B6B606A9847A36AF9
:10233000606A0021D3F8CC3098472046BDE8384089
:102340000121FFF77FBCAB070BD12B79AF2B08D155
:102350002046A968FFF72AFF2046BDE83840FFF76E
:10236000F7BC29462046FFF721FFE0E7350C0610B1
:1023700070B543780446012B1646CD6806D1036A32
:102380000A461B8B3146FFF71CFD6861002320467F
:102390001A466969FFF77EFC2046E968FFF706FFE9
:1023A000062E05D1A36A0021D3F88830606A9847C9
:1023B000A36A606AD3F8BC500023AC46BDE8704005
:1023C0001A460121604738B505460C46C968FFF733
:1023D000EDFE2846A168BDE83840FFF7E7BE0B795F
:1023E00070B5342B04460D4610D18968FFF7DEFE28
:1023F000ED68AD6885B9A36A0F211B6B606A9847C9
:10240000A36A04220221D3F8A0301AE0836A0F21C4
:102410001B6B406A9847ECE7AB071FD12B799A2BCF
:1024200013D1A36A0F211B6B606A9847A968002922
:10243000E6D02046FFF7BAFE04220321A36AD3F8B0
:10244000A030606ABDE8704018479B2B06D1A96890
:102450002046FFF7ABFEEB689968E8E7294620467F
:10246000FFF7A4FECCE710B504468968FFF79EFE8F
:10247000A36A606A0021BDE81040DB6C18470000C9
:102480002DE9F7438D68044616465DB9002A75D0DC
:1024900002222946836AD3F8A030606A03B0BDE8FF
:1024A000F043184715F0030740F08A802B79372B4B
:1024B00013D132B1836A02220121D3F8A030406ADD
:1024C000984720462946FFF771FEA36A606AD3F851
:1024D000A43003B0BDE8F04318479F2B70D1EB68E0
:1024E0001A79A12A5AD1A22101AA03F1080015F0F4
:1024F0007BFDA968804621B38B0722D10B79372B4E
:102500001FD136B1A36A411C0222D3F8A030606A01
:1025100098472046A968FFF749FEA36A606AD3F886
:10252000A43098474FF00109474510D1B9F1000F89
:1025300024D1A36A0322D3F8A030606A791C98479B
:102540001CE02046FFF732FE4FF00009ECE7019B4C
:1025500053F82710A9B18E0713D10E79A6F13700D1
:10256000464246412046FFF721FEB9F1000F11D047
:102570004EB9184A29462046FFF744FD03B0BDE88E
:10258000F0830026EEE7A36A606AD3F8A430984788
:102590000137C9E7002EFBD00F4AEBE7AB685BB110
:1025A0009A0709D11B79372B06D10422294603B09B
:1025B000BDE8F043FFF7DCBE052229462046F6E7DA
:1025C00029462046FFF7F2FDA36A03220121D3F832
:1025D000A03062E7400C06104E0C06100122FFF7F7
:1025E0004FBF70B50D460446C968FFF7DFFDA96807
:1025F000A36AC1F30711332918BF3F39606A08BFC6
:102600000221BDE87040D3F8983018BFC9B218470E
:10261000F8B54E680C46896807460025FFF7C6FDE9
:10262000360A0C340235AE4200DCF8BD384661682B
:10263000FFF7BCFD2168BB6A09092439D3F89C3037
:10264000786AC9B208349847ECE72DE9F0410C46A6
:10265000D1F8048054F8081F07460125FFF7A6FDAE
:10266000A8F10D06F6B2B5EB182F01DBBDE8F0813D
:10267000384654F8041FFFF799FDBB6A3146D3F87A
:102680009C30786A98470135EDE72DE9F041044622
:102690004E680D46360A8968FFF788FD032E98BFFD
:1026A0004FF000084FF0010782BFD4F80C8008F10A
:1026B0000103E3607B1C9E4222DC032E55D9E568B2
:1026C000606A6B1CE360A36A29469B6E9847A36A05
:1026D0004146606A9B6A9847A36A0121606A9B68C9
:1026E0009847A36A606A1B6E9847A36A606ADB6DAD
:1026F0009847A36A2946606A9B6ABDE8F04118477B
:10270000204629690237FFF751FDB74207DAA36A6D
:10271000606A5B6D9847A36A606A5B6E9847EB6876
:10272000A26A03F00F010A29D2F89C20606A11D135
:10273000C3F30713252B0EBF0621343BD9B29047B4
:10274000B74205DAA36A424600211B6F606A9847C8
:102750000835AFE71979852901D13221EFE79B6868
:102760000BB90721EBE73321E9E7BDE8F08110B5AC
:1027700004468968FFF71AFDA36A606A0321BDE871
:102780001040D3F8983018472DE9F0470D4604461D
:10279000002755F8046FD0F80C805FFA86F9A9F18C
:1027A0001E03D3F1000949EB030908F10103C360DB
:1027B000360AB74206DBA36A4146606A9B6ABDE8F7
:1027C000F0471847204655F8041F0137FFF7EEFC85
:1027D000B742F0DAA36A424649461B6F606A9847DF
:1027E000E7E7000001F00F03022B70B5044612D09A
:1027F0000B79492B09D0483B082B18D8DFE803F0A8
:10280000081707171717170507000123A37070BDD6
:102810008E680D6975B9A378002BF8D1638A002BF7
:10282000F5D02046BDE870401C4AFFF7EBBBD1E96C
:102830000265EFE7A3783BB3238A01339BB2012BF8
:1028400023820ED1D4E90903618AD1B10022D3F8E1
:10285000A0309847A36A02220021D3F8A030606A12
:10286000984729462046FFF7A1FCA36A606A9B6B44
:1028700031099847A36A606AD3F8A430BDE8704074
:1028800018471B6C9847E5E7638A294601332046C1
:102890006382BDE87040FFF789BC00BF5B0C061087
:1028A0002DE9F04104468846C568CF68AB1C00227C
:1028B000B968C3602B46FFF7B1FC2046D8F8081072
:1028C000FFF774FCA36A606A691C9B6E9847A36A51
:1028D0002946606A9B6A9847A36A606A9B684FF0C2
:1028E000FF3198472046F968FFF760FCA36A606AE9
:1028F000691C9B6ABDE8F04118472DE9F047C6689E
:10290000D0F814A0B31CC360038B06F10108B0F823
:102910001A9004468682A0F81680438388680D4684
:1029200015F022F9F8B9E768A8687B1CE36015F098
:102930001EF920B9A36A41469B6E606A9847A36A54
:1029400039469B6A606A98472046E968FFF72EFC83
:10295000A36A41469B6A606A98473B46012220462B
:10296000A968FFF75BFC20462969C4F814A0A4F805
:102970001A90FFF71BFCA36A3146606A9B6ABDE8A8
:10298000F04718472DE9F347C6680446731CC36037
:1029900088680D4615F0E8F80246E8B9E768204671
:1029A0007B1CA968E3603B46FFF738FC2046E968DA
:1029B000FFF7FCFBA86815F0DAF8D8B92B690BB95A
:1029C0006B6923B1A36A31469B6E606A9847A36A1C
:1029D00039469B6A606A9847712101AA05F1100087
:1029E00015F002FB0027824657450BD12046696946
:1029F000FFF7DCFBA36A31469B6A606A984702B026
:102A0000BDE8F087019B53F82780D8F8080015F03F
:102A1000ABF80246F8B9D4F80C90204609F101034E
:102A2000D8F80810E3604B46FFF7F8FB2046D8F8CB
:102A30000C10FFF7BBFBD8F8080015F098F8002839
:102A4000D8D1A36A31469B6E606A9847A36A49460B
:102A50009B6A606A98470137C6E70000184B2DE96A
:102A6000F041D3F8506204460F463EBBC5680122D0
:102A70006B1CC36089682B46FFF7D0FBA36A1F213C
:102A800001225B69606A9847F96851B12046FFF7F7
:102A90008DFBA36A3246D3F8BC7001213346606ACD
:102AA000B847A36A606A0121D3F8C8309847A36A7F
:102AB0002946606A9B6ABDE8F0411847BDE8F0818D
:102AC000402E002070B58D6804463DB92946836AC2
:102AD000D3F8C830606ABDE870401847AB070ED124
:102AE0002B795E2B0BD1A968FFF760FBE9682046C4
:102AF000FFF75CFBA36A0221D3F8C830EAE7294656
:102B00002046FFF753FBA36A0121D3F8C830E1E761
:102B100010B504468968FFF749FBA36A606ADB6D5C
:102B2000BDE81040184700002DE9F041036A044653
:102B30001B78072B04D0BDE8F0411A4AFFF762BAB0
:102B40008D685DB9836A0F211B6B406A9847A36A41
:102B5000606AD3F8C430BDE8F041184715F00302AD
:102B60001DD12B791B2B1AD1C668EF68731CC3606B
:102B7000B9683346FFF752FBA9682046FFF716FBFA
:102B8000A36A606AD3F8C4309847A36A31469B6A47
:102B9000606A9847F9682046FFF708FBD7E729469F
:102BA000F9E700BF790C06102DE9F0410C46064606
:102BB00054F8045F2D0A04EB8507BC4208D1B36AC0
:102BC0002946706A0022BDE8F041D3F8A0301847CA
:102BD000304654F8041FFFF7E9FAEEE78968034628
:102BE00010B439B9826A406AD2F8A0400A46234636
:102BF00010BC18474A68120A022A0AD1CA6842B1B0
:102C0000940706D11279AC2A03D110BC0622FFF733
:102C1000AFBB184610BCFFF7C7BF2DE9F0410D460A
:102C200006460F46002455F8048FB4EB182F01DB3D
:102C3000BDE8F081304655F8041FFFF7B7FA736816
:102C40003BB10234304657F82410BDE8F041FFF79D
:102C50004DB90134E9E710B50446FFF7DEFFA36A7A
:102C6000606A2221BDE81040D3F89C30184770B547
:102C70008C68054644B901222146836AD3F8A03006
:102C8000686ABDE870401847A1071ED16368DAB2D0
:102C9000922A1AD11B0A022B0CD1E36853B19A076E
:102CA00008D11B79AC2B05D12146BDE87040032229
:102CB000FFF75EBB21462846FFF7AFFF6168AB6AAE
:102CC0000122D3F8A030090ADAE721462846FFF7A7
:102CD0006DFA0122AB6A1146D3F8A030D0E70000AC
:102CE00001F00F03022B2DE9F04705460C4604D1F5
:102CF000BDE8F0470909FFF73FBA002955D011F0A8
:102D0000030652D10B792C2B38D18968FFF74EFA84
:102D1000E668002E49D016F0030846D1776833469E
:102D2000FAB28E2A09D13F0A06F1040907F1FF3AE7
:102D3000C24510DC013756F827301A79312A12D1F2
:102D400028469968FFF732FAAB6A686A0221BDE843
:102D5000F047DB6C1847284659F8041FFFF726FA9E
:102D600008F10108E4E7322A1FD19968AB6A686A62
:102D70000222BDE8F0471B6D090918472D2B14D11D
:102D80008C6894B163681B0A022B06D0271D636808
:102D9000B6EB132F10D3BDE8F087E368002BF5D016
:102DA0009A07F3D11B79AC2BF0D121462846BDE818
:102DB000F047054AFFF726B9284657F8041FFFF7E2
:102DC0008FFF0136E3E700BF850C06102DE9F843BD
:102DD0000446006A1746C28A0D46910706D5374A4F
:102DE00029462046BDE8F843FFF70CB905F00F016E
:102DF000022918D1A37829098BB1838B01338383EE
:102E00004FF000094FF00108002955D0002217F0BB
:102E100019FF03780646002B38D0294AE0E7438B98
:102E200001334383ECE72979A946B9420BD1A9685C
:102E3000A37809091BB1838B01338383E2E7438BBA
:102E400001334383DEE7994218D1A378002BC6D122
:102E50000121A170A96879B301F00F06022E1CBFF1
:102E60008946D9F8081042F0040208BF99464FF08D
:102E70000308C2820CBF09090909C5E7A96842F025
:102E800002024FF005080909C282BDE7042380F859
:102E900001800370236A1B8B032B0DD1482F0BD1AC
:102EA000B9F1000F08D02046D9F80C10FFF7DEF872
:102EB000737843EA00137370BDE8F8838F0C061033
:102EC000930C061049234822FFF780BF4F234E2260
:102ED000FFF77CBF2DE9F04F0E468DB00162002157
:102EE0004270C16033780446072B154605D0894AE5
:102EF0000DB0BDE8F04FFFF785B8012A05D0036B90
:102F0000021D29461B68C06A98476378F768032B3F
:102F100010D146210BAA07F10C0015F065F8236BC0
:102F200001469B680B9AE06A984763687083002BA0
:102F300040F0B9803969B9B101F00F03022B0FD10C
:102F40000B09752B3DD006D83E2B3CD05E2B0BD009
:102F50002046714ACCE7B3F57D7FF9D1032304E025
:102F600020466E4AFFF74EF8022304937B6919212D
:102F700009AA08A8089315F037F84FF00008079041
:102F8000079B984521D16378012B16D9236B0499AF
:102F90005B68E06A98476378042B0ED1049B206A33
:102FA000E26A0393438B052102930023CDE90033AA
:102FB0000069D2E9023202F0FDFB6368002B72D196
:102FC00014E00023D1E70123CFE7099B4FEA880BE8
:102FD00053F828100B79082B02D108F10108CFE72C
:102FE000052B06D04E4A2046FFF70CF80DB0BDE881
:102FF000F08F8B68002BF5D09A07F3D1CA68002AAE
:10300000F0D11A792C2AEDD19E6806F00F02022A1F
:10301000E8D1D3F80C90B9F1000FE3D019F0030F09
:10302000E0D199F80430302BDCD1A4210AAA09F1AF
:10303000080014F0D9FF40F2E52336099E4282468B
:103040001BD1012805D10A9A136803F00F03022B44
:1030500004D0344A099B53F80B10C4E7E168012DF2
:1030600001F10103E3601AD01268236BE06ADB68A8
:103070001209984798B92C4AECE740F203239E4284
:1030800014D1012803D10A9B1968CB0701D4274A20
:10309000E0E7012D03D0E06A4910FDF7EDF9636820
:1030A000002B9AD04F463B68A3609FE740F2522323
:1030B0009E4223D1012804D90A9B1A6812F0010606
:1030C00001D11B4AC6E7012DE9D0531006930A9A95
:1030D0000BA952F8260014F033FD08B9154AB9E7D8
:1030E000E36A0B9805930EF0EEFF01360246DDE928
:1030F0000501FDF7C8F9B245E9D1D0E7012DCED0E1
:10310000236B0246D3F810B031460A9BE06AD847D9
:10311000C5E700BF9D0C0610AA0C0610AE0C0610E9
:10312000B60C0610BC0C0610C80C0610CC0C061011
:10313000D80C0610EA0C061042780B46012A02D180
:10314000006A02F0F3BA816A026A1831406A02F03A
:10315000FCBA00002DE9F14F8F0704460D461646D4
:1031600013D001F00F03022B18D102F0FD06012E3F
:103170004FEA111104D001B0BDE8F04FFFF7DCBFFA
:1031800001B0BDE8F04FFFF704B84968CBB22D2B72
:103190007FD00BD8062B0ED02C2B13D029462046DF
:1031A000504A01B0BDE8F04FFEF72CBF2E2B00F0C7
:1031B00084809D2BF2D1002EF0D105F10802090A7E
:1031C00020467FE0022A02D0A968FEF7EFFFEF68F1
:1031D000002FE3D017F00309E0D17B68B846DAB2DC
:1031E0008E2A0DD1022E4FEA132805D007F1040ACA
:1031F00008F1FF3BD94515DB08F1010857F8288095
:1032000098F80430312B27D1022E13D1A36A606ABB
:103210005B6E98470121A36ADB6C606A01B0BDE870
:10322000F04F184720465AF8041FFEF7BFFF09F178
:103230000109DFE72046D8F80810FEF7B7FFD4E908
:103240000903012E05D19B6D9847A36A0021DB6C11
:10325000E3E70121DB6CE1E7322B9FD1D4E90903DD
:10326000012E0CD15B6D98470022A36AD8F8081094
:103270001B6D606A090901B0BDE8F04F1847022EC6
:1032800001D11B6E9847A36A0122D8F808101B6D64
:10329000EFE7AA68002A81D0002E7FF47FAF516843
:1032A000090A022907D1D3682BB1980703D11B79EA
:1032B000AC2B3FF473AF083282E7002A7FF46EAF85
:1032C000A96821B901B0BDE8F04F00F071B88E07D0
:1032D00003D10B790A46922BE1D0012105F10802B6
:1032E0006EE700BFF50C06102DE9F04704460D46C9
:1032F000C6681F46B31CC360836A31469B6A406A36
:1033000091469847A36A606AD3F88C30711C98473D
:10331000A96800222046FFF71DFF2D6965BB4946BD
:103320002046FEF743FF236A1978D4E909030629EA
:103330001CD1D3F8CC302946984720460121FEF70E
:1033400081FCA36A606ADB6D9847A36A3146606AB4
:103350009B6E9847A36A606A9B6A711C9847A36A30
:10336000606AD3F89030BDE8F0471847BA00D3F848
:10337000A83005329847E8E72B79AD2B07D1A9682B
:10338000334600222046FEF749FFED68C6E7204697
:10339000E968FEF70BFFA36A606A0121D3F8883061
:1033A00098474A46294620467B1CFFF79DFFCCE7FD
:1033B0002DE9F84304468846914600254FF0FF3634
:1033C0004F1E7A1C0CD1731C05D1A36A4146D3F859
:1033D000AC30606A9847002545451CD1BDE8F883AC
:1033E00059F8251071B188070CD10B79222B09D11E
:1033F00001360AD1A36A3A462946D3F8B030606A4A
:1034000098472E460135013FDBE72046BDE8F843EB
:10341000074AFEF7F7BD59F82510AE424FF00002FB
:10342000204608BF8968FFF795FE0135D4E700BF45
:10343000000D06102DE9F04704460F4690469946C8
:1034400021B9BDE8F0471946FEF7B0BEC668731C47
:10345000C360156835B315F0030A23D12B797B2B94
:1034600020D1A968FEF7A2FE524631462046FEF75B
:10347000F1FB52462046E968FFF76CFE4B462046BA
:1034800008F10402791EFFF7D5FFA36A3146606A8E
:10349000DB6F984720460321FEF7D4FBBDE8F047D9
:1034A000FEF7E8BB29462046FEF780FE20460022B4
:1034B0003146FEF7CFFBA36A606ADB6D9847DDE714
:1034C00037B50C46054601AA7A2104F1080014F02C
:1034D0008BFDE3680146019A2846FFF7ABFF03B076
:1034E00030BD2DE9F04F8B68044603F00F03022B2B
:1034F0000D4689B040F00081CB68002B00F0FC80C5
:10350000980740F0F9801A792C2A40F0F5809A68E3
:1035100002F00F01022940F0EF8012097C2A40F0EE
:10352000EB80DB681A79302A40F0E6809B68A421A2
:1035300007AA06A8069314F057FD431E022B00F2BB
:10354000DB80079B01281A6800F0C980022800F080
:10355000C4809E68F10740F1CF80710800F0CC80F4
:10356000D3F8049032B1930704D11179A639022916
:1035700040F2C280B9F1000F08D019F0030F05D155
:1035800099F80410A639022940F2B680AB686F6939
:1035900001932B69218B02936369E5680493638B24
:1035A00005F1010B03936183AB1C291D19F0010880
:1035B0000593A582A4F816B005F1030AE16005D1D0
:1035C000494620460592FEF7F1FD059A1146204630
:1035D000FEF7ECFDA26A5146926E606A9047A26ABD
:1035E000A91C926A606A9047A26A606A526D90470D
:1035F000002220460199FFF7ADFD20460299FEF713
:10360000D5FDA26A5946926A606A904731462046C3
:10361000FEF7CCFDA26A0E21D2F89C20606A90478A
:10362000A26A606A926A51469047D4E90902B8F1E9
:10363000000F58D1936D9847A36A606A1B6E984734
:10364000A36A002EACBF00210121D3F89C30606A30
:103650009847A36A0121DB6E606AAA1C9847049B05
:103660006361039B6383002F44D0A36A606ADB6DB0
:1036700088F001099847B8F1000F03D1A36A606A86
:10368000DB6D984739462046FEF790FDE668606A94
:10369000731CE360A36A31469B6E9847A36A606A15
:1036A0009B6809F101019847A36A606A9B6A2946F1
:1036B0009847A36A606ADB6D9847B8F1000F03D1A1
:1036C000A36A606ADB6D984727B1A36A31469B6A9B
:1036D000606A984709B0BDE8F08F032640E791463D
:1036E0000326024646E7526D904749462046FEF7BC
:1036F0005DFDA5E73E46D7E7E668238BB4F81A9050
:1037000063836FEA46436FEA5343D4F814A0771CEF
:10371000A382F31C2046E968E360E782FEF746FDDA
:10372000A36A606A0121D3F888309847A36A3946B2
:10373000606A9B6A9847A36A606AD3F88C30B11CB0
:10374000984700222046A968FFF704FD2046296912
:10375000FEF72CFDA36A3946606A9B6E9847A36A00
:10376000B11C606A9B6A9847A36A606AD3F890307C
:10377000984720466969C4F814A0A4F81A90FEF787
:1037800015FD3146A36A606A9B6A09B0BDE8F04F37
:1037900018472DE9F74F0446894692469B4629B9BA
:1037A000194603B0BDE8F04FFEF700BDC5682B1DFC
:1037B000C36013686F1C05F10208EE1C002B00F0BB
:1037C000D48013F0030240F0D08019797B2940F0B7
:1037D000CC80996801920093FEF7E8FCA16A606AC8
:1037E000496D884740F2D7112046FEF7CAFADDE955
:1037F00000322046D968FFF7ADFC02222946204658
:10380000FEF728FAA36A606A03219B6898470AF1C9
:1038100004025B46204609F1FF31FFF7BAFFA36AB5
:10382000606A6FF002019B689847A36A2A4639468E
:10383000D3F88090606A4346C847A36A606A5B6DAC
:103840009847A36A606A5B6E9847A36A606A1B6EBA
:103850009847A36A00224FF4EC71606A5B6C98474A
:10386000A36A606A5B6E9847A36A606A5B6E98475A
:10387000A36A606A5B6D9847A36A00220A21606AA6
:103880001B6D9847A36A606A1B6E9847A36A606ABB
:103890000F211B6B9847A36A0321D3F8C050002364
:1038A000606A1A46A8472046FEF752FAA36A3246D3
:1038B0000021606ADB6E9847A36A606ADB6D9847F7
:1038C000A36A606A0F211B6B9847A36A3146606A3E
:1038D0009B6E9847A36A606A02219B689847A36A17
:1038E0004146606A9B6A9847A36A606A5B6E984724
:1038F000A36A606A5B6E9847A36A3946606A9B6AEE
:103900009847A36A0022606A4FF4EC715B6C984799
:10391000A36A0F21606A1B6B9847A36A606A5B6D9C
:103920009847A36A606A5B6D9847A36A0321D3F83E
:10393000C0500023606A1A46A8472046FEF708FADE
:10394000A36A606ADB6D9847A36A606A4FF0FF3133
:103950009B689847A36A606A31469B6A98472046ED
:1039600003B0BDE8F04FFEF785B919462046FEF7D3
:103970001DFCA36A606A5B6D9847204640F2D71130
:10398000FEF7FFF9A36A606ADB6D984735E72DE91A
:10399000F041CD6804460E4665BB0378C3B1036AA7
:1039A0001D78ADB940F2E511FEF7F3FBB168204692
:1039B000FEF7FCFBA36A2A46D3F8BC6001212B4624
:1039C000606AB047A36A606ADB6DBDE8F0411847E2
:1039D000B1688B0707D001F00F03022B08D12046F6
:1039E000FEF7E4FBEEE70029F9D00B793A2BF6D18C
:1039F000BDE8F081AF0740F0AF806B68DAB25B2AB8
:103A000011D1ED68002D4AD1006A0378072BEFD160
:103A1000896801F00F03022BEAD1BDE8F0410422CE
:103A2000D14017F00FB9562A13D101228968FFF748
:103A300091FB2046E968FEF7B9FBA968A36A09096A
:103A40003E39D3F89C30606AC9B298470222B16807
:103A50007DE0572A25D11B0A5F1E013355F823103C
:103A6000FEF7A4FB002F03DDA36A606A5B6D984735
:103A7000B16800222046FFF76DFB00260435BE42E8
:103A8000B6DA0136BE4203DAA36A606A5B6D984714
:103A90000022204655F8041FFFF75CFBEFE7A9075B
:103AA0005AD16B68DAB2062A56D1B768002F53D0C4
:103AB000BA0751D17A68D1B206294DD11B0AB3EBAE
:103AC000122F4FEA122847D1A8F10203012B43D845
:103AD000BB6823B1980702D11B79222B3CD0FB682D
:103AE00023B1990702D11B79222B35D0B8F1020FEF
:103AF00006D03B6923B19A0702D11B79222B2BD028
:103B00002046A968FEF752FB2046E968FEF74EFB07
:103B1000B8F1030F07D120462969FEF747FBA36AD6
:103B2000606A5B6E9847A36A606A1B6E98470022C2
:103B30002046B968FFF70EFB00222046F968FFF720
:103B400009FBB8F1030F7FF453AF00223969204617
:103B5000BDE8F041FFF7FEBA29462046FEF726FBF6
:103B6000002274E70023032A2DE9F04104460D46A4
:103B7000164642700162C36080F8342002D1C08EC4
:103B800050BBA0634FF00008A36A31461B68606A0F
:103B90002A46A4F83680984706212046FEF752F8B8
:103BA0006778EE68012F04BFA5F82280A5F824806D
:103BB000B6B1B20714D133793F2B11D1B168FEF7FA
:103BC000F5FAA36A606AD3F8C4309847A36A606ABA
:103BD0005B68BDE8F0411847800006F0B3FCD0E711
:103BE0002B78072B00F29380DFE803F00491254146
:103BF0004141410E31462046FEF7D8FA0F21A36A13
:103C0000606A1B6B9847DCE7012F12D10023A37079
:103C10004622574B2046F168FEF771F92B8B032B98
:103C200007D120463169FEF721FAEB8A43EA801377
:103C3000EB827169DFE7A36A3168DB68606A9847E5
:103C40006378012B07D10023A3704C222046494BF7
:103C5000B168FEF754F92046F168FEF7A7FAEB8A3F
:103C6000DB07AED5A36A606ADB6D9847C6E7012F14
:103C7000D6F80C8005D104223946206A16F0E2FFFE
:103C80006F83A36A3168DB68606A98472B78032BDF
:103C900024D10122A36AD3F8A0300021606A98479A
:103CA0002B78062B28D1A36A606A1B6C98470121E8
:103CB0002046FEF76EFAA36A606A1B6C9847A36AF7
:103CC000606A1B6C9847002341462046B268FFF7A4
:103CD0000BFB2B78062B7FF474AF8FE7042B04D1FA
:103CE000A36A0222D3F8A030D7E7052BD8D1A36A64
:103CF0000322D3F8A030D0E720460121FEF749FA8D
:103D0000A36A0121D3F88830606A9847DBE7012F66
:103D100004D104220A21284616F094FF17212046D8
:103D2000FEF737FA16212046FFF706FAB168A36AB4
:103D3000606A9B6B090998471A212046FFF7FCF936
:103D400020463169FEF732FA0A21284616F06AFF4A
:103D50000246D4E909031178042902D10F211B6B13
:103D600050E71D690A2100235288A84729E700BFB0
:103D7000C52E0010CD2E0010036A10B51A8B044614
:103D8000FEF71BF901462046BDE81040FFF7D4B905
:103D90002DE9F04F8D6804462B7985B0032B0AD1AD
:103DA0002946FFF7E9FFAA69D38A43F00103D382CA
:103DB00005B0BDE8F08F026AD28AD20706D4294640
:103DC0005E4A05B0BDE8F04FFEF71CB9162B40F077
:103DD000A780C668E968331DC360FEF7E7F9A36AE8
:103DE000606A002240F2D9115B6C9847A36A606A4E
:103DF000D3F8C07000231A461946B8476369E768CC
:103E00000093638B07F101080193BB1CE360238BD4
:103E100041466383A36A606A9B6AA782A4F81680FE
:103E200098470122711C2046FDF714FFA36A606ABF
:103E30005B6D9847204640F2DB11FDF7A2FF20465C
:103E4000A9680022FFF786F9A36A0022606AB11C04
:103E5000D3F894309847A36A711C606A9B6A9847AC
:103E6000A36A606AD3F8D0309847A36A606A5B6D32
:103E70009847A36A0122606A4FF4DB715B69984737
:103E8000A36A606A0821D3F89C309847A36AF21CA1
:103E90000021606ADB6E9847A36A606ADB6D984711
:103EA000A36A01223146606AD3F894309847A36A26
:103EB000606AF11C9B6A9847A36A01219B68606A4B
:103EC00098472046FDF7D6FEA36A606AD3F8D4303F
:103ED0009847A36A606A9B6AB11C98472046296983
:103EE000FEF764F9A36A4146606A9B6E9847009B9F
:103EF00031466361019B606A6383A36A9B6A98474A
:103F000020466969FEF752F9A36A606A39469B6ADE
:103F10009847A36A606ADB6D05B0BDE8F04F1847AB
:103F200003AA7A2105F1080014F05EF8EB68014657
:103F3000039A2046FFF72DFC3AE700BF070D061055
:103F40002DE9F04F0F46044685B0C5681E460E9B0E
:103F5000294603936B1C0293AB1CC36001920122A0
:103F6000FDF778FE394600272046FEF71FF9A36AC1
:103F70000022D3F89430606A691C9847A36A2946E6
:103F80009B6A606A9847A36A606AD3F8D030984702
:103F9000D4F80C9009F10103E360019B9F4218DB08
:103FA0002046FDF767FEA36A606AD3F8D4309847CD
:103FB000A36A02999B6A606A984720460399FEF7B4
:103FC000F5F84946A36A606A9B6A05B0BDE8F04F00
:103FD0001847D6F800B0D4F80CA0DBF808800AF136
:103FE0000103E3600137B8F1000F51D1019BBB42DF
:103FF00043D10025A36A606ADB6D9847A846204636
:10400000DBF80C100436FEF7D1F825B3A36A0F21B4
:104010001B6B606A9847A36A41469B6A606A98472F
:10402000A36A01219B68606A9847A36A0F211B6BF2
:10403000606A984729462046FFF77EF829462046C1
:10404000FEF79AF8A36A606A4FF0FF319B689847C1
:104050002046FDF70FFEA36A01224946606AD3F8A5
:1040600094309847A36A5146606A9B6A9847A36A4E
:1040700001219B68606A98478FE720461E4A316895
:10408000FDF7C0FF204605B0BDE8F04FFDF7F2BDDB
:1040900018F003052DD198F804204346762A03D161
:1040A000DD68D8F808802D09A36A606A5B6D9847BF
:1040B00041462046FEF77AF8A36A0821D3F89C30DF
:1040C000606A9847A36A52460021DB6E606A98478F
:1040D000002D8ED029462046FFF72EF8D4F80C800C
:1040E000022208F1010341462046E360FDF7B2FDDC
:1040F00085E70025D8E700BF1E0D06102DE9F34720
:104100001746DDE90AA8C56899466B1C0E460222CF
:104110002946C3600446FDF79DFD002F2DD1A36AFB
:1041200003219B68606A984731462046FEF73EF8B7
:10413000A36A6FF002019B68606A9847A36A606A8D
:104140000F211B6B9847A36A2946606A9B6A9847B0
:10415000A36A606A9B680121984741462046FEF7A2
:1041600025F8A36A606A4FF0FF319B6898472046A4
:1041700002B0BDE8F047FDF77DBD4B463A463146FB
:104180002046CDF800A0FFF7DBFED7E7F0B5CD68FD
:1041900006462B790C46782B85B009D1AB68019384
:1041A00000231A4600938968FFF7A8FF05B0F0BD09
:1041B000742B4FF0770103AA13D105F1080013F017
:1041C00013FF2F690246A168039BE86827B9009096
:1041D0003046FFF7B5FEE9E7BC68CDE9000430469C
:1041E000E2E704F10C0013F0FFFE00230093024607
:1041F000039BA168ECE7000001F00F03022B70B5F0
:1042000004460E46154602D01E4AFDF7FBFE29461F
:104210002046FDF7CBFFA36A606A5B6D9847637821
:104220003509012B11D1226A1378033BDBB2032B32
:104230000BD85068294601F079FA03461A78206AAB
:10424000032A08D1294616F0FDFC29462046BDE880
:104250007040FEF771BF0022294616F0F3FC236A76
:1042600002465B685B68002B0CBF0123002304D06F
:104270000178012904BF0021017031462046FDF775
:1042800015FFE2E7F50C06102DE9F04F002687B088
:10429000039101920446A42105AA03A81D4613F028
:1042A000A3FEB146B04637464FF0010A0290029B8A
:1042B0009E4213D1B8F1000F04D0A36A49465B6B4C
:1042C000606A9847D4E90903019A002A79D0D3F8A3
:1042D000C04043463A462946A04714E0059B53F8A0
:1042E00026B0BBF1000F5FD01BF0030F5CD19BF831
:1042F0000420A62A1FD118F0020F07D0324A5946CF
:104300002046FDF77FFE07B0BDE8F08F0FB12F4AC2
:10431000F5E71D2E01D92E4AF1E70AFA06F22046EA
:10432000DBF8081049EA02094FF00108FDF73EFFEB
:1043300001350136BBE7A72A0CD1A26A606A126C6C
:104340009047DBF8081048F002082046FDF72EFFE2
:104350000137EEE7A82A27D1DBF80C2072B19307CA
:104360000CD11179AA2907D120469268DBF80810F0
:10437000FFF742FF0135DCE7AC290FD0DBF808106E
:1043800001F00F02022A01D0124AB8E7A26A090915
:10439000926B606A9047DBF80C10D6E7062259460C
:1043A0002046FDF7E5FFE5E718F0020F01D00A4AC5
:1043B000A5E70FB1094AA2E759462046FDF7F6FEE8
:1043C000D8E7D3F8BC4084E7360D06103D0D061043
:1043D000470D06104F0D06105C0D0610630D0610FC
:1043E00070B50D46417804460129134603D12A468B
:1043F000FDF7E7FC6861A36A606A9B6C984700233D
:104400006E691A4631462046FDF744FCA36AB18A1C
:104410009B6B606A9847E96829B18B0703D10B79D8
:10442000A32B08BF0021204602230022FFF72CFF08
:10443000B08A70BD002389681A46FFF725BF0000C7
:104440002DE9F8430C4689680546FDF7AFFEE6689E
:10445000002E56D07768296AFBB209788E2BA368A4
:1044600019BF012704F10C063F0A0836072903F09B
:104470000F024AD1022A46D11A099A2A47D1336833
:104480001A79302A3FD19B68002B3CD10A2128465B
:10449000FDF77FFE2A6AD36A128D32B92846316849
:1044A0003E4ABDE8F843FDF7ADBD5978C9070FD5C1
:1044B00028465968FDF76DFED5E90903022F0AD891
:1044C000D3F8BC40002302211A46A047012416E07D
:1044D000013A0833E1E7726811793229F0D1B46802
:1044E00021793029ECD191685B6C01220909984748
:1044F000A168002301222846FFF7C6FE0324A74235
:1045000025D8BDE8F8830024F9E7022AFBD11B096E
:10451000B3F5C47FF7D133681A79302AF3D19B6899
:10452000002BF0D013F00304EDD11B792F2BE6D133
:10453000AB6A22462146D3F8BC80686A2346C0474E
:104540003368224628469968FDF79AFFBEE704F1D2
:104550000108B84556F824101BD20B79322B18D11C
:1045600006EB8403D3F8049099F80430302B10D173
:104570008968AB6A00225B6C686A09099847002366
:1045800001222846D9F80810FFF77EFE08F1010441
:10459000B5E72846FDF70AFEA046F7E76A0D0610C4
:1045A00010B5036A04461B780A46072B06D0022B77
:1045B00004D0BDE81040064AFDF724BD2046114650
:1045C000FFF73EFF2046BDE81040FDF7C1BB00BF2E
:1045D0007D0D0610D1E90212FFF70EBE036A10B579
:1045E0001A8B0446FFF7FCFE01462046BDE810404A
:1045F000FEF7A2BD2DE9F04F8B4685B0044642215F
:1046000002AA0BF1080013F0EFFC00278046BA461F
:10461000236A1E8B47450AD1DBF80C100B79032B5C
:1046200050D132462046FDF7C8FC054658E0029BB3
:104630006C2153F8273003AA03F10800019313F00B
:10464000D3FC039B054619680A09732A0DD020463E
:10465000FDF7ACFD4FF00109A94527D3019BD968AF
:1046600069B12046FDF7A2FD09E0022809D02046E5
:10467000294AFDF7C7FC35462E460AF1010A0137E3
:10468000C8E759680B09412B0CD0B3F54A7FF3D02A
:1046900040F20B42934207D040F20F229342E6D100
:1046A0000425E9E70125E7E70325E5E7039B002269
:1046B00053F82910A36A606A1B6D0909984709F12C
:1046C0000109C9E7442B17D18F6832463946204685
:1046D000FDF773FC0546BA69D38A43F00103D38220
:1046E0000026A8EB0A08B0450BD829462046FEF75D
:1046F00023FD05B0BDE8F08F32462046FFF770FE7F
:1047000093E7A36A0121D3F8BC700023606A1A46BC
:10471000B8470136E7E700BF880D06102DE9F341E1
:104720008D68044605F00F030A2B0E4607D0002DB6
:1047300031D015F003012ED12B79652B1ED10095B8
:104740000025652101AA684613F04EFC002140F2C5
:10475000CA52019B03EB8000834215D140F21A43F9
:10476000F2689A4237D1236A1F78B7B131462046A2
:10477000394A02B0BDE8F041FDF744BC622BEDD1EF
:10478000AB680093ED68DCE753F8047B97420CBFFD
:1047900001310331E0E70021E0E7A36A606A5B6B67
:1047A0009847A36A606A05219B6B9847A36A3A46BB
:1047B000D3F8A030606A012198472946204601AA13
:1047C000FDF714FB02223946A36A606ADB6A02B075
:1047D000BDE8F0411847A36A606A5B6B984706F131
:1047E0000C006A466A2113F0FFFB00260746D4E955
:1047F0000903BE4213D100223946D3F8A0309847AE
:104800002946204601AAFDF7F1FA0025D4E909035B
:10481000BD420DD1DB6D984702B0BDE8F081009A32
:104820009B6B52F826200136916809099847DEE70C
:10483000009ADB6A52F825800122D8F80860310915
:104840009847D8F80C1029B931092046FEF774FCB6
:104850000135DBE70909F8E7A00D061037B5044676
:104860000D46836A00215B6B406A9847A36A606AC1
:104870001B6B0F2198472946204601AAFDF7B6FA7F
:104880002046019903B0BDE83040FEF755BC00005A
:104890002DE9F04F9BB0CDE902011020144605F040
:1048A00038FE4FF050431A689A4B002153F82230DB
:1048B00007461B695822436004A85BF080FE4FF056
:1048C000FF33012113A88DF81040099305F08AFEEB
:1048D000039B0122D90041F0020113A805F0CAFE92
:1048E00001230021436016A80DF042FF029A8A4B73
:1048F000002193F85432126804A8FDF762FA0546C5
:1049000011A800F079FE4FF0000B844B0B9C019036
:104910000D900E930CB1059E1EB30B9C14B1059B1C
:10492000002B3DD000265946019800F06CFEDFF8C0
:10493000EC910B9CDFF8E8A1DDF81480002C00F06E
:104940003581B8F1000F00F0ED800C9C04A8E168FF
:10495000FDF7CCFA4046A38A069A03990CF032FA86
:1049600028E1238B0122042B214604A807D1FEF75E
:10497000B1FA079BA4689B4538BF9B46CAE7FFF77F
:10498000F1F8238D9E42F4D2E36A03EBC60113F8DB
:104990003630012B02D1204616F07CF90136F0E7C3
:1049A000E28A520716D5218D013913D3E66A4FEA00
:1049B000C10E06EBC102507810F0020F22D04BB1AD
:1049C000D3E9008C92E8030083E8030046F80E80E8
:1049D000C2F804C04FF0000300262384B4F828C0B6
:1049E000664515DB00239C454BD1616841B1002031
:1049F0000346B1F828A0504553DB002B40F08880D7
:104A0000A4688BE7002BCFD1012808BF1346CBE762
:104A10002378D4F82C80012B4FEAC60A08EBC6098C
:104A200005D1D9F804300A2B12D10136D6E70FD9B7
:104A300018F83630012B0BD14FF0030308F836304D
:104A4000238B032B16D0E38A43F01003E38203E0A9
:104A500018F80A30032BF3D018F80A30042B03D0CF
:104A600099F80130DB07E0D5238C5A1C2284A9F881
:104A70000230DAE7D9F8040009F0C2FE0128EBDCC5
:104A8000E1E7E26A02EBC30112F83320052A06D1FE
:104A90004A78D6075FBF228C4A80013222840133D4
:104AA000A1E7CA6A02EBC00912F83020053AD2B277
:104AB000012A14D8002610E0E26A02EBC60812F8B8
:104AC0003620062A08D1D9F804E0D8F80420964503
:104AD00004BFA8F8023001330136B445ECD10130EF
:104AE00089E7E06A00EBC20110F83200062802D123
:104AF0004878C00702D54888184448800132944558
:104B0000EFD1628B1A446283228C1344238477E7AB
:104B10000022F4E750200020402E0020747E061072
:104B200060800610238B042B17D10F9B1BB95846AE
:104B300001F0C0FB0F9000230D934B4B0322214645
:104B400004A81093FEF7C6F9059B23B90422214659
:104B500004A8FEF7BFF9A468EEE6023B012B21D8BA
:104B600036B95B4607AA05A911A804F003F8064662
:104B7000CDE90D6A0222214604A8FEF7F3FF059B4A
:104B8000002BE8D10322214604A8FEF7EBFF059B8A
:104B9000002BE0D10422214604A8FEF7E3FF002801
:104BA000F8D0D8E7019BCDE90D39E3E7B8F1000F64
:104BB0007FF4CBAEDDF814802C69B8F1000F16D06D
:104BC000019800F028FD002E42D10F9808B101F0A5
:104BD00086FB029813F0F6FB2846AD6816F018F82D
:104BE000002DF9D10598002836D009F093FE139BCB
:104BF0001898C3F3DC035B00033300EB93008000E1
:104C00004FEA930905F085FC00EB8903FB60DDE9C1
:104C100014EC4346B8600CF1040873450BD1002333
:104C2000189A9342CCD0199951F82300F96841F8A9
:104C300023000133F5E75CF833203AB1042A1FBFA3
:104C400058F83310D208491020F811200133E4E756
:104C5000304603F0B1FFB8E72A46394620461BB07C
:104C6000BDE8F04F00F0B8BD4C7F06104FF0504348
:104C70001A68044B82B053F82230186801ABC01A8E
:104C800002B070475020002008B5FFF7EFFF4FF04B
:104C900050431A68044B53F822305B68984201D3A2
:104CA00015F054FE08BD00BF502000204379012BB1
:104CB00007D083681944036981605A8C9142C8BF48
:104CC00059847047002383714379012B1EBFC26A48
:104CD000036A43F8212070476FF00301FFF7E6BF36
:104CE0000421FFF7E3BF6FF00201FFF7DFBF0346C8
:104CF000426A4079114403288ABF586B18468018CD
:104D000059627047827903460AB118467047C26AF1
:104D100040791144032801D8D962F6E7986AD9622C
:104D20000244586B1044704710B50C460121FFF740
:104D3000E9FF047010BD10B51446FFF7B7FF01215D
:104D4000FFF7E0FF047010BD53220121FFF7F3BF0E
:104D500054220121FFF7EFBF57220121FFF7EBBFDC
:104D600058220221FFF7E7BF59224FF0FF31FFF72A
:104D7000E2BF5A220021FFF7DEBF5B220021FFF7CE
:104D8000DABF5D224FF0FF31FFF7D5BF19B1032124
:104D90005F22FFF7D0BF5E22FBE7A1F13002D2B263
:104DA0000021FFF7C8BF62226FF00101FFF7C3BF08
:104DB00010B563224FF0FF310446FFF7BCFF01231B
:104DC000A37110BD01F1640210B5D2B2494204468C
:104DD000FFF7B1FF0123A37110BD10B5044601F127
:104DE0006702D2B24942FFF7A6FF2269D38A43F095
:104DF0000103D38210BD000038B504461D46FFF7FD
:104E00009AFF2A462046BDE838400149FBF732BEEA
:104E1000054D001070B504460D46C068194616468B
:104E200000F054FC3246034629462046BDE8704057
:104E3000FFF7E2BF0B4610220121FFF7EBBF113253
:104E40000B46D2B20121FFF7E5BF20B40B4602F1B9
:104E500014055100C1F10101EAB220BCFFF7DABF2D
:104E600016320B46D2B24FF0FF31FFF7D3BF1932E3
:104E70000B46D2B20021FFF7CDBF70B41E46C46806
:104E800025786388042D04BF656845F823605D1CA0
:104E9000658070BCFFF7B0BF03F128011346CAB2AA
:104EA0000021FFF7A9BF022A02F12A020B46D2B263
:104EB0000CBF0121C1F10101FFF79EBF032910B40E
:104EC0000BD004290BD101210C468B1844EA830333
:104ED0002F2210BCC943FFF78FBF0021F4E7002148
:104EE0000224F2E70B4630220139FFF785BF10B4E8
:104EF00041EA022310BC11443122FFF77DBFF8B50F
:104F000017461E46FFF7D2FE8479054604BB437957
:104F1000022B25D9C46A026AC4F1FF2452F8263054
:104F200004F57F04FE34442F1C4412D814F1400FC2
:104F300014DB3F2CD4BF00260126A41B2846B11C3D
:104F4000FFF7E0FE07706EB9442F98BF40344470FD
:104F5000F8BD7F2C94BF00260126EEE70126ECE782
:104F60000126EBE76B79442F98BF04F58044042BAE
:104F700005D1B4F5004F24BF012385F8383064F023
:104F80007F03E41143708470E2E70B4610B54222C0
:104F900000210446FFF7B3FF0123A37110BDF8B54C
:104FA00005460C46164621F40047AAB90B0408D45E
:104FB0003B46422200212846FFF7A1FF0123AB71A7
:104FC000F8BD5921FFF7B0FE032459212846FFF709
:104FD000ABFE013CF9D1EBE73B4640220021FFF755
:104FE0008EFF210A21F07F0131432846C9B2FFF725
:104FF0009BFEE3E70B46B2FA82F120B4490902F1C5
:105000004705EAB2490020BCFFF779BF0B464B22A7
:105010000121FFF774BF0B4610B54A220021044658
:10502000FFF76DFF0123A37110BD0000264B2DE992
:10503000F047D3F850320646022B0F460ED885694A
:10504000A9420BD940F2FF78C46A43694D1BE41AA8
:1050500055EA040304D1F36AC6E90537BDE8F087D1
:10506000062D01D90F2C1AD91F2CA24628BF4FF0AC
:105070001F0A1F2C10D8032DA94628BF4FF0030983
:1050800001213046FFF733FE4AEA49130370A4EBCF
:105090000A04A5EB0905DBE74FF00009F0E74545F9
:1050A000A94628BFC14602213046FFF720FE4FEA3D
:1050B000191303F07003234363F07F03A2460370C8
:1050C00080F80190E3E700BF402E002010B50446B1
:1050D00031B955224FF0FF31BDE81040FFF72BBE2C
:1050E000022904D1FFF730FE2046FFF746FE562284
:1050F0006FF002012046EFE7134621B143224FF043
:10510000FF31FFF7FCBE4422F9E7134621B14522E7
:105110004FF0FF31FFF7F3BE4622F9E7322938B5E9
:10512000054611D0332912D000242939CAB22846A5
:105130004FF0FF31FFF7FFFD64B12846BDE838406E
:10514000D3220021FFF7F7BD01240621EDE701245A
:105150000721EAE738BD012A10B40B46044607D000
:10516000022A0CD110BC69224FF0FF31FFF7E3BDDA
:1051700011461B32204610BCD2B2FFF74BBE4FF097
:10518000FF31F6E770B50D46044611462AB92B46A5
:105190001322BDE87040FFF73DBE022A04D1FFF79D
:1051A000D3FD2046FFF7E5FD2B4618226FF00101E5
:1051B0002046EEE710B404463BB90F2A05D810BCD0
:1051C000503A0121D2B2FFF7B6BD03F124012046C7
:1051D00010BC1346CAB20121FFF70EBE10B404463C
:1051E00043B90F2A06D810BC403A4FF0FF31D2B273
:1051F000FFF7A1BD03F12601204610BC1346CAB239
:105200004FF0FF31FFF7F8BD70B4D2B2DDE90365AE
:1052100003EB460443EA062315B101320134D2B24E
:10522000091B70BCFFF7E8BD07B5CDE900230B46AD
:1052300034220021FFF7E8FF03B000BD07B5CDE938
:1052400000230B4636224FF0FF31FFF7DDFF03B09E
:1052500000BD10B50446C06800F04EFA2322034694
:1052600001212046BDE81040FFF7C6BD01F1100343
:105270003F2B73B506460D4608D8A1F180020121E7
:10528000D2B202B0BDE87040FFF755BD0121222225
:105290000DF10504FFF74FFD214605F07F002B4679
:1052A000ED11224604F8010D681C0128F5D80135DE
:1052B00003F0400314D11BB97F2304F8013C941E72
:1052C000091B3046FFF71EFD0146621E01AD12F8B4
:1052D000013FAA4208D11044001B037002B070BD08
:1052E000002BEDD00023E8E763F07F0301F8013BDA
:1052F000EDE770B514460546049A134308BF202213
:105300000B691ABF2122E143C4F10101FFF7B5FD8A
:105310002846E1B2BDE87040FFF706BD1A4308BF5A
:1053200032220B6916BF332201214FF0FF31FFF704
:10533000A4BD00000D2910B504460BD10949C06871
:1053400000F0DAF92322034601212046BDE810408F
:10535000FFF752BD01F14202D2B20121BDE8104077
:10536000FFF7E9BC10A4061038B504460D460F211E
:10537000FFF7E0FF20462946FFF7A4FC02215C224C
:10538000FFF7D9FC2046BDE838406FF00301FFF776
:105390008DBCF8B504460F4616461D460F21FFF793
:1053A000C9FF2046FFF7E5FC39462046FFF7EDFD33
:1053B00031462046FFF786FCFFF7CEFC012220464F
:1053C0002121FFF73CFD20460821FFF7A7FE2A46D2
:1053D0002046BDE8F8400021FFF78EBE437970B546
:1053E000012B044614D00025C26B436A05649B1A46
:1053F000C3632069038DAB420CD86379032B1BD1A7
:10540000606AE36AA0622363184405F09BF8606356
:10541000012070BDC36A03EBC50213F83530052BBC
:1054200008D1012120469678FFF761FC0670236CB5
:10543000013323640135DCE7042BE9D1D4E90A13F5
:10544000626A8A4202D1216B994203D00020A26293
:105450002363DEE794F838301BB10649064814F0A0
:105460004DFAE268C38A5268616B006900F099F9ED
:10547000CEE700BFB20D0610BC97061000232DE941
:10548000F74F1646C0E904230122378C83608371ED
:10549000C362436280F83830738C05461F449742DC
:1054A000B8BF1746B6F82490B6F81A804FEA8904B8
:1054B000013F826104F0040408F003021443B6F8CB
:1054C00016A0FA0002F07802B38BB6F81EB0417154
:1054D0000AF00F0A14433F094FEA59094FEA9808A6
:1054E00047EA090242EA0A0242EA08021A4352EA79
:1054F0000B0235D101212846FFF7F9FB04706B79C7
:10550000022B19D9D5E90F787C0008F0010304F0CB
:105510007E041C434FEA5808BF0944F0800358EA50
:1055200007094FF00101284618BF1C46FFF7DFFBB3
:105530000470B9F1000FE7D16B6AB18AEB63E868D8
:1055400000F0C4F82B4902462846FBF793FA0024E2
:10555000738BB28B1344A34248DD0022318D41E0AE
:10556000012128460193FFF7C2FB64F07F043A0152
:1055700004704FEA8A14019B02F0300204F04004E8
:1055800014430BF001021443DA0002F00802144342
:105590004FEA880202F0040214434FEA490202F083
:1055A00002021443BF084FEA59094FEA5A0A4FEA68
:1055B00058085B084FEA5B0B92E7F36A03EBC20300
:1055C0005878C0070DD55888A0420AD15968E868B4
:1055D00000F07CF8074902462846FBF74BFA0134F5
:1055E000B6E701329142E8DC0521F0E703B0BDE8FF
:1055F000F08F00BFEF4C001010B50446442004F0BB
:10560000A1FFC46010BD10B50446C161880004F05C
:1056100080FF206210BD10B50446006A04F0A1FFAF
:105620002046BDE8104004F09CBF00008842F8B559
:1056300007460C4601D10120F8BD214B984201D10B
:105640000020F9E79942FBD009F098F90546204679
:1056500009F094F98542F3D11A4B9D4213D17A682F
:1056600063689A42ECD100253E1D04347B68AB424E
:10567000E1D954F8041F56F8040FFFF7D7FF0028AC
:10568000DED00135F2E72146384609F029FC002832
:10569000D6D00D4B9D42CED138460BF0D9FC00211F
:1056A000054658F0B3F80028C5D020460BF0D0FCD2
:1056B00005F0004500F000402B1A58425841BBE766
:1056C0001891061080A80610C89A0610C90010B5D7
:1056D0000122044641F00201083004F0CBFF436888
:1056E0003BB9A368C3F3DC03013B5B0043F0010358
:1056F0004360C3F34F0010BD70B505460E4600244D
:10570000EB69A34208D8314605F114000CF0E9FE1C
:10571000EC69013C204670BD2B6A314653F82400E9
:10572000FFF784FF0028F5D10134E9E710B5012225
:10573000044615F087FA0378012B05D12378012B55
:105740008CBF04230223037010BD70B505460E46BE
:10575000104619461C4615F065FA03785A1E012AB0
:1057600006D80022736821462846BDE870401847D5
:10577000032B02D101227368F5E73668042B21461A
:10578000B446428808BF00232846BDE8704018BFD1
:105790000123604708B5102004F0D4FE0123837074
:1057A00008BD10B5022403F00103C0E901128470A2
:1057B000C37010BD9DF80430426003F00103C37054
:1057C000009B039A8360029B81700373C36862F33A
:1057D0001F23C3607047000070B5044623880D4640
:1057E0001046BBB10A46002321460BF02DFF23468D
:1057F000002213F8011B090603D4D30726D51D4B3D
:105800001AE01E1B13F8011B013EC1F38015B540C1
:105810002A43F0E7A3786668042B0FD0052B16D037
:10582000032B0A46A36831461DD10BF00DFF124B26
:105830000360E37853B1114B036007E01020104977
:10584000A46809F08EF8C0E90154C66070BD10204C
:105850000C49257BE46809F084F8C4F31724C0E9F7
:105860000156C460F2E70BF0EFFEE378002BEDD0B9
:10587000C5E700BF8C9C0610449B0610709C061068
:105880002C9B0610149B061038B514461D4612F4C6
:10589000807218BF1A46FFF79FFF620902F00802E4
:1058A0002A44E1B2BDE838400AF00CB902F00F0317
:1058B000022B10B5044608D00A460C490C480BF0E0
:1058C00035FA636A1860002010BD836A002012094F
:1058D000834204D1238C042BF5D10649EEE7E16A1B
:1058E00051F820109142EFD00130F1E7BD0D0610C4
:1058F00074970610C30D061038B50446A2B195077B
:1059000012D110792E280FD192686AB190070BD16D
:1059100040F292205568854206D1012091681960B5
:10592000D268049B1A6038BD0A46044804490BF04B
:10593000FDF9636A18600020F5E700BF7497061050
:10594000CF0D06107FB504460D46104603A91E462E
:1059500012F0F6F848B92A460B490C480BF0E6F964
:10596000636A1860002004B070BD039809F0E6F87F
:1059700030EA06020346F6D02A4605490096034857
:105980000BF0D4F9ECE700BFE20D06107497061097
:10599000E80D0610038C70B5032BC46A03D10023F5
:1059A000856A9D4205D144F82120FAF75BFD01206C
:1059B00070BD54F82360964201D00133F1E7002016
:1059C000F6E7FAF7B8BD032910B504460184426230
:1059D0000FD1826A0021C06A92005AF0F0FD0121C5
:1059E0002046FAF716FD2046BDE810400021FAF7E0
:1059F00070BD042914BF01210221F1E700F00F035B
:105A0000022B02D1000913F0DBBA0148704700BF36
:105A100059690610F8B5054610460E461F46FFF7B1
:105A2000EDFF174A00249446017853788B421BD12E
:105A300090F801E093789E4516D190F802E0D37873
:105A4000734511D16BB91CF82400B84208D93B4604
:105A500032460C490C480BF069F96B6A186000205B
:105A6000F8BDC378002BEED00134152C02F10402EE
:105A7000DBD13246054904480BF058F9EDE700BF89
:105A8000E27F0610FE0D0610749706100B0E06102E
:105A90002DE9F34706460F46002A3CD093073AD13A
:105AA00013792F2B37D1926802F00F03022B08D104
:105AB0000F23FFF7AFFF01248440204602B0BDE86A
:105AC000F08742B312F0030A25D113799F2B22D11C
:105AD000D5682B79A12B1ED10F239268FFF79AFF6F
